{
  "_format": "hh-sol-artifact-1",
  "contractName": "SmartBnb",
  "sourceName": "contracts/SmartBnb.sol",
  "abi": [
    {
      "inputs": [
        {
          "internalType": "uint256",
          "name": "_listingFee",
          "type": "uint256"
        }
      ],
      "stateMutability": "nonpayable",
      "type": "constructor"
    },
    {
      "anonymous": false,
      "inputs": [
        {
          "indexed": true,
          "internalType": "address",
          "name": "renter",
          "type": "address"
        },
        {
          "indexed": false,
          "internalType": "uint256",
          "name": "rentalId",
          "type": "uint256"
        },
        {
          "indexed": false,
          "internalType": "uint256",
          "name": "bookDateStart",
          "type": "uint256"
        },
        {
          "indexed": false,
          "internalType": "uint256",
          "name": "bookDateEnd",
          "type": "uint256"
        },
        {
          "indexed": false,
          "internalType": "string",
          "name": "city",
          "type": "string"
        },
        {
          "indexed": false,
          "internalType": "string",
          "name": "imgUrl",
          "type": "string"
        },
        {
          "indexed": false,
          "internalType": "uint256",
          "name": "timestamp",
          "type": "uint256"
        }
      ],
      "name": "NewBookAdded",
      "type": "event"
    },
    {
      "anonymous": false,
      "inputs": [
        {
          "indexed": true,
          "internalType": "address",
          "name": "previousOwner",
          "type": "address"
        },
        {
          "indexed": true,
          "internalType": "address",
          "name": "newOwner",
          "type": "address"
        }
      ],
      "name": "OwnershipTransferred",
      "type": "event"
    },
    {
      "inputs": [
        {
          "internalType": "string",
          "name": "_name",
          "type": "string"
        },
        {
          "internalType": "string",
          "name": "_city",
          "type": "string"
        },
        {
          "internalType": "string",
          "name": "_lat",
          "type": "string"
        },
        {
          "internalType": "string",
          "name": "_long",
          "type": "string"
        },
        {
          "internalType": "string",
          "name": "_description",
          "type": "string"
        },
        {
          "internalType": "string",
          "name": "_imgUrl",
          "type": "string"
        },
        {
          "internalType": "uint256",
          "name": "_maxGuests",
          "type": "uint256"
        },
        {
          "internalType": "uint256",
          "name": "_pricePerDay",
          "type": "uint256"
        }
      ],
      "name": "addRental",
      "outputs": [],
      "stateMutability": "payable",
      "type": "function"
    },
    {
      "inputs": [
        {
          "internalType": "uint256",
          "name": "_id",
          "type": "uint256"
        },
        {
          "internalType": "uint256",
          "name": "_fromDateTimestamp",
          "type": "uint256"
        },
        {
          "internalType": "uint256",
          "name": "_toDateTimestamp",
          "type": "uint256"
        }
      ],
      "name": "bookDates",
      "outputs": [],
      "stateMutability": "payable",
      "type": "function"
    },
    {
      "inputs": [
        {
          "internalType": "uint256",
          "name": "_newFee",
          "type": "uint256"
        }
      ],
      "name": "changeListingFee",
      "outputs": [],
      "stateMutability": "nonpayable",
      "type": "function"
    },
    {
      "inputs": [
        {
          "internalType": "uint256",
          "name": "_id",
          "type": "uint256"
        }
      ],
      "name": "getRentalBookings",
      "outputs": [
        {
          "components": [
            {
              "internalType": "address",
              "name": "renter",
              "type": "address"
            },
            {
              "internalType": "uint256",
              "name": "fromTimestamp",
              "type": "uint256"
            },
            {
              "internalType": "uint256",
              "name": "toTimestamp",
              "type": "uint256"
            }
          ],
          "internalType": "struct SmartBnb.Booking[]",
          "name": "",
          "type": "tuple[]"
        }
      ],
      "stateMutability": "view",
      "type": "function"
    },
    {
      "inputs": [
        {
          "internalType": "uint256",
          "name": "_id",
          "type": "uint256"
        }
      ],
      "name": "getRentalInfo",
      "outputs": [
        {
          "components": [
            {
              "internalType": "uint256",
              "name": "id",
              "type": "uint256"
            },
            {
              "internalType": "address",
              "name": "owner",
              "type": "address"
            },
            {
              "internalType": "string",
              "name": "name",
              "type": "string"
            },
            {
              "internalType": "string",
              "name": "city",
              "type": "string"
            },
            {
              "internalType": "string",
              "name": "lat",
              "type": "string"
            },
            {
              "internalType": "string",
              "name": "long",
              "type": "string"
            },
            {
              "internalType": "string",
              "name": "description",
              "type": "string"
            },
            {
              "internalType": "string",
              "name": "imgUrl",
              "type": "string"
            },
            {
              "internalType": "uint256",
              "name": "maxGuests",
              "type": "uint256"
            },
            {
              "internalType": "uint256",
              "name": "pricePerDay",
              "type": "uint256"
            }
          ],
          "internalType": "struct SmartBnb.RentalInfo",
          "name": "",
          "type": "tuple"
        }
      ],
      "stateMutability": "view",
      "type": "function"
    },
    {
      "inputs": [],
      "name": "getRentals",
      "outputs": [
        {
          "components": [
            {
              "internalType": "uint256",
              "name": "id",
              "type": "uint256"
            },
            {
              "internalType": "address",
              "name": "owner",
              "type": "address"
            },
            {
              "internalType": "string",
              "name": "name",
              "type": "string"
            },
            {
              "internalType": "string",
              "name": "city",
              "type": "string"
            },
            {
              "internalType": "string",
              "name": "lat",
              "type": "string"
            },
            {
              "internalType": "string",
              "name": "long",
              "type": "string"
            },
            {
              "internalType": "string",
              "name": "description",
              "type": "string"
            },
            {
              "internalType": "string",
              "name": "imgUrl",
              "type": "string"
            },
            {
              "internalType": "uint256",
              "name": "maxGuests",
              "type": "uint256"
            },
            {
              "internalType": "uint256",
              "name": "pricePerDay",
              "type": "uint256"
            }
          ],
          "internalType": "struct SmartBnb.RentalInfo[]",
          "name": "",
          "type": "tuple[]"
        }
      ],
      "stateMutability": "view",
      "type": "function"
    },
    {
      "inputs": [],
      "name": "listingFee",
      "outputs": [
        {
          "internalType": "uint256",
          "name": "",
          "type": "uint256"
        }
      ],
      "stateMutability": "view",
      "type": "function"
    },
    {
      "inputs": [],
      "name": "owner",
      "outputs": [
        {
          "internalType": "address",
          "name": "",
          "type": "address"
        }
      ],
      "stateMutability": "view",
      "type": "function"
    },
    {
      "inputs": [],
      "name": "renounceOwnership",
      "outputs": [],
      "stateMutability": "nonpayable",
      "type": "function"
    },
    {
      "inputs": [
        {
          "internalType": "uint256",
          "name": "",
          "type": "uint256"
        }
      ],
      "name": "rentals",
      "outputs": [
        {
          "internalType": "uint256",
          "name": "id",
          "type": "uint256"
        },
        {
          "internalType": "address",
          "name": "owner",
          "type": "address"
        },
        {
          "internalType": "string",
          "name": "name",
          "type": "string"
        },
        {
          "internalType": "string",
          "name": "city",
          "type": "string"
        },
        {
          "internalType": "string",
          "name": "lat",
          "type": "string"
        },
        {
          "internalType": "string",
          "name": "long",
          "type": "string"
        },
        {
          "internalType": "string",
          "name": "description",
          "type": "string"
        },
        {
          "internalType": "string",
          "name": "imgUrl",
          "type": "string"
        },
        {
          "internalType": "uint256",
          "name": "maxGuests",
          "type": "uint256"
        },
        {
          "internalType": "uint256",
          "name": "pricePerDay",
          "type": "uint256"
        }
      ],
      "stateMutability": "view",
      "type": "function"
    },
    {
      "inputs": [
        {
          "internalType": "address",
          "name": "newOwner",
          "type": "address"
        }
      ],
      "name": "transferOwnership",
      "outputs": [],
      "stateMutability": "nonpayable",
      "type": "function"
    },
    {
      "inputs": [],
      "name": "withdrawBalance",
      "outputs": [],
      "stateMutability": "nonpayable",
      "type": "function"
    }
  ],
  "bytecode": "0x60806040523480156200001157600080fd5b506040516200228d3803806200228d833981016040819052620000349162000098565b6200003f3362000048565b600155620000b2565b600080546001600160a01b038381166001600160a01b0319831681178455604051919092169283917f8be0079c531659141344cd1fd0a4f28419497f9722a3daafe3b4186f6b6457e09190a35050565b600060208284031215620000ab57600080fd5b5051919050565b6121cb80620000c26000396000f3fe6080604052600436106100a75760003560e01c806377f25f6f1161006457806377f25f6f146101675780637eb89724146101875780638da5cb5b146101b45780639982aaeb146101dc578063af94a1d1146101ef578063f2fde38b1461022557600080fd5b806327dc3fbd146100ac57806346e6e5fb146100e25780635ea5da20146100f75780635fd8c710146101195780636a1b7ecc1461012e578063715018a614610152575b600080fd5b3480156100b857600080fd5b506100cc6100c7366004611a8a565b610245565b6040516100d99190611bc8565b60405180910390f35b6100f56100f0366004611bdb565b6106be565b005b34801561010357600080fd5b5061010c610d29565b6040516100d99190611c07565b34801561012557600080fd5b506100f5611129565b34801561013a57600080fd5b5061014460015481565b6040519081526020016100d9565b34801561015e57600080fd5b506100f56111c3565b34801561017357600080fd5b506100f5610182366004611a8a565b6111d7565b34801561019357600080fd5b506101a76101a2366004611a8a565b6111e4565b6040516100d99190611c69565b3480156101c057600080fd5b506000546040516001600160a01b0390911681526020016100d9565b6100f56101ea366004611d6e565b611292565b3480156101fb57600080fd5b5061020f61020a366004611a8a565b61147f565b6040516100d99a99989796959493929190611e78565b34801561023157600080fd5b506100f5610240366004611f23565b61181a565b6102a46040518061014001604052806000815260200160006001600160a01b0316815260200160608152602001606081526020016060815260200160608152602001606081526020016060815260200160008152602001600081525090565b8160025481106102cf5760405162461bcd60e51b81526004016102c690611f4c565b60405180910390fd5b600383815481106102e2576102e2611f70565b90600052602060002090600a020160405180610140016040529081600082015481526020016001820160009054906101000a90046001600160a01b03166001600160a01b03166001600160a01b0316815260200160028201805461034590611f86565b80601f016020809104026020016040519081016040528092919081815260200182805461037190611f86565b80156103be5780601f10610393576101008083540402835291602001916103be565b820191906000526020600020905b8154815290600101906020018083116103a157829003601f168201915b505050505081526020016003820180546103d790611f86565b80601f016020809104026020016040519081016040528092919081815260200182805461040390611f86565b80156104505780601f1061042557610100808354040283529160200191610450565b820191906000526020600020905b81548152906001019060200180831161043357829003601f168201915b5050505050815260200160048201805461046990611f86565b80601f016020809104026020016040519081016040528092919081815260200182805461049590611f86565b80156104e25780601f106104b7576101008083540402835291602001916104e2565b820191906000526020600020905b8154815290600101906020018083116104c557829003601f168201915b505050505081526020016005820180546104fb90611f86565b80601f016020809104026020016040519081016040528092919081815260200182805461052790611f86565b80156105745780601f1061054957610100808354040283529160200191610574565b820191906000526020600020905b81548152906001019060200180831161055757829003601f168201915b5050505050815260200160068201805461058d90611f86565b80601f01602080910402602001604051908101604052809291908181526020018280546105b990611f86565b80156106065780601f106105db57610100808354040283529160200191610606565b820191906000526020600020905b8154815290600101906020018083116105e957829003601f168201915b5050505050815260200160078201805461061f90611f86565b80601f016020809104026020016040519081016040528092919081815260200182805461064b90611f86565b80156106985780601f1061066d57610100808354040283529160200191610698565b820191906000526020600020905b81548152906001019060200180831161067b57829003601f168201915b505050505081526020016008820154815260200160098201548152505091505b50919050565b8260025481106106e05760405162461bcd60e51b81526004016102c690611f4c565b6000600385815481106106f5576106f5611f70565b90600052602060002090600a020160405180610140016040529081600082015481526020016001820160009054906101000a90046001600160a01b03166001600160a01b03166001600160a01b0316815260200160028201805461075890611f86565b80601f016020809104026020016040519081016040528092919081815260200182805461078490611f86565b80156107d15780601f106107a6576101008083540402835291602001916107d1565b820191906000526020600020905b8154815290600101906020018083116107b457829003601f168201915b505050505081526020016003820180546107ea90611f86565b80601f016020809104026020016040519081016040528092919081815260200182805461081690611f86565b80156108635780601f1061083857610100808354040283529160200191610863565b820191906000526020600020905b81548152906001019060200180831161084657829003601f168201915b5050505050815260200160048201805461087c90611f86565b80601f01602080910402602001604051908101604052809291908181526020018280546108a890611f86565b80156108f55780601f106108ca576101008083540402835291602001916108f5565b820191906000526020600020905b8154815290600101906020018083116108d857829003601f168201915b5050505050815260200160058201805461090e90611f86565b80601f016020809104026020016040519081016040528092919081815260200182805461093a90611f86565b80156109875780601f1061095c57610100808354040283529160200191610987565b820191906000526020600020905b81548152906001019060200180831161096a57829003601f168201915b505050505081526020016006820180546109a090611f86565b80601f01602080910402602001604051908101604052809291908181526020018280546109cc90611f86565b8015610a195780601f106109ee57610100808354040283529160200191610a19565b820191906000526020600020905b8154815290600101906020018083116109fc57829003601f168201915b50505050508152602001600782018054610a3290611f86565b80601f0160208091040260200160405190810160405280929190818152602001828054610a5e90611f86565b8015610aab5780601f10610a8057610100808354040283529160200191610aab565b820191906000526020600020905b815481529060010190602001808311610a8e57829003601f168201915b5050509183525050600882015460208201526009909101546040909101529050600062015180610adb8686611fd0565b610ae59190611fe9565b90506001811015610b385760405162461bcd60e51b815260206004820152601a60248201527f43616e277420626f6f6b206c657373207468616e20312064617900000000000060448201526064016102c6565b3481836101200151610b4a919061200b565b1115610b8e5760405162461bcd60e51b8152602060048201526013602482015272125b9cdd59999a58da595b9d08185b5bdd5b9d606a1b60448201526064016102c6565b610b99868686611890565b15610bd75760405162461bcd60e51b815260206004820152600e60248201526d105b1c9958591e48189bdbdad95960921b60448201526064016102c6565b600086815260046020908152604080832081516060810183523381528084018a81528184018a81528354600180820186559488528688209351600390910290930180546001600160a01b0319166001600160a01b03948516178155915193820193909355915160029092019190915591850151905191169034908381818185875af1925050503d8060008114610c89576040519150601f19603f3d011682016040523d82523d6000602084013e610c8e565b606091505b5050905080610cd65760405162461bcd60e51b81526020600482015260146024820152732330b4b632b2103a379039b2b7321022ba3432b960611b60448201526064016102c6565b606083015160e084015160405133927f4e27b2923b94fe899fee8da53de85bdbb54a0f8c5e1446fb3e3bdd5f83f47f6692610d18928c928c928c924290612022565b60405180910390a250505050505050565b60606003805480602002602001604051908101604052809291908181526020016000905b828210156111205760008481526020908190206040805161014081018252600a86029092018054835260018101546001600160a01b03169383019390935260028301805492939291840191610da190611f86565b80601f0160208091040260200160405190810160405280929190818152602001828054610dcd90611f86565b8015610e1a5780601f10610def57610100808354040283529160200191610e1a565b820191906000526020600020905b815481529060010190602001808311610dfd57829003601f168201915b50505050508152602001600382018054610e3390611f86565b80601f0160208091040260200160405190810160405280929190818152602001828054610e5f90611f86565b8015610eac5780601f10610e8157610100808354040283529160200191610eac565b820191906000526020600020905b815481529060010190602001808311610e8f57829003601f168201915b50505050508152602001600482018054610ec590611f86565b80601f0160208091040260200160405190810160405280929190818152602001828054610ef190611f86565b8015610f3e5780601f10610f1357610100808354040283529160200191610f3e565b820191906000526020600020905b815481529060010190602001808311610f2157829003601f168201915b50505050508152602001600582018054610f5790611f86565b80601f0160208091040260200160405190810160405280929190818152602001828054610f8390611f86565b8015610fd05780601f10610fa557610100808354040283529160200191610fd0565b820191906000526020600020905b815481529060010190602001808311610fb357829003601f168201915b50505050508152602001600682018054610fe990611f86565b80601f016020809104026020016040519081016040528092919081815260200182805461101590611f86565b80156110625780601f1061103757610100808354040283529160200191611062565b820191906000526020600020905b81548152906001019060200180831161104557829003601f168201915b5050505050815260200160078201805461107b90611f86565b80601f01602080910402602001604051908101604052809291908181526020018280546110a790611f86565b80156110f45780601f106110c9576101008083540402835291602001916110f4565b820191906000526020600020905b8154815290600101906020018083116110d757829003601f168201915b505050505081526020016008820154815260200160098201548152505081526020019060010190610d4d565b50505050905090565b6111316119e0565b604051600090339047908381818185875af1925050503d8060008114611173576040519150601f19603f3d011682016040523d82523d6000602084013e611178565b606091505b50509050806111c05760405162461bcd60e51b81526020600482015260146024820152732330b4b632b2103a379039b2b7321022ba3432b960611b60448201526064016102c6565b50565b6111cb6119e0565b6111d56000611a3a565b565b6111df6119e0565b600155565b60608160025481106112085760405162461bcd60e51b81526004016102c690611f4c565b600083815260046020908152604080832080548251818502810185019093528083529193909284015b82821015611286576000848152602090819020604080516060810182526003860290920180546001600160a01b0316835260018082015484860152600290910154918301919091529083529092019101611231565b50505050915050919050565b6001543410156112d75760405162461bcd60e51b815260206004820152601060248201526f496e73756666696369656e742066656560801b60448201526064016102c6565b6040805161014081018252600254815233602082019081529181018a8152606082018a90526080820189905260a0820188905260c0820187905260e08201869052610100820185905261012082018490526003805460018101825560009190915282517fc2575a0e9e593c00f959f8c92f12db2869c3395a3b0502d05e2516446f71f85b600a90920291820190815593517fc2575a0e9e593c00f959f8c92f12db2869c3395a3b0502d05e2516446f71f85c820180546001600160a01b0319166001600160a01b0390921691909117905590519192839290917fc2575a0e9e593c00f959f8c92f12db2869c3395a3b0502d05e2516446f71f85d01906113dd90826120bc565b50606082015160038201906113f290826120bc565b506080820151600482019061140790826120bc565b5060a0820151600582019061141c90826120bc565b5060c0820151600682019061143190826120bc565b5060e0820151600782019061144690826120bc565b506101008201516008820155610120909101516009909101556002805490600061146f8361217c565b9190505550505050505050505050565b6003818154811061148f57600080fd5b60009182526020909120600a90910201805460018201546002830180549294506001600160a01b0390911692916114c590611f86565b80601f01602080910402602001604051908101604052809291908181526020018280546114f190611f86565b801561153e5780601f106115135761010080835404028352916020019161153e565b820191906000526020600020905b81548152906001019060200180831161152157829003601f168201915b50505050509080600301805461155390611f86565b80601f016020809104026020016040519081016040528092919081815260200182805461157f90611f86565b80156115cc5780601f106115a1576101008083540402835291602001916115cc565b820191906000526020600020905b8154815290600101906020018083116115af57829003601f168201915b5050505050908060040180546115e190611f86565b80601f016020809104026020016040519081016040528092919081815260200182805461160d90611f86565b801561165a5780601f1061162f5761010080835404028352916020019161165a565b820191906000526020600020905b81548152906001019060200180831161163d57829003601f168201915b50505050509080600501805461166f90611f86565b80601f016020809104026020016040519081016040528092919081815260200182805461169b90611f86565b80156116e85780601f106116bd576101008083540402835291602001916116e8565b820191906000526020600020905b8154815290600101906020018083116116cb57829003601f168201915b5050505050908060060180546116fd90611f86565b80601f016020809104026020016040519081016040528092919081815260200182805461172990611f86565b80156117765780601f1061174b57610100808354040283529160200191611776565b820191906000526020600020905b81548152906001019060200180831161175957829003601f168201915b50505050509080600701805461178b90611f86565b80601f01602080910402602001604051908101604052809291908181526020018280546117b790611f86565b80156118045780601f106117d957610100808354040283529160200191611804565b820191906000526020600020905b8154815290600101906020018083116117e757829003601f168201915b505050505090806008015490806009015490508a565b6118226119e0565b6001600160a01b0381166118875760405162461bcd60e51b815260206004820152602660248201527f4f776e61626c653a206e6577206f776e657220697320746865207a65726f206160448201526564647265737360d01b60648201526084016102c6565b6111c081611a3a565b600083815260046020908152604080832080548251818502810185019093528083528493849084015b8282101561190e576000848152602090819020604080516060810182526003860290920180546001600160a01b03168352600180820154848601526002909101549183019190915290835290920191016118b9565b50505050905060005b81518110156119d25781818151811061193257611932611f70565b602002602001015160200151851015801561196a575081818151811061195a5761195a611f70565b6020026020010151604001518511155b806119ba575081818151811061198257611982611f70565b60200260200101516020015184101580156119ba57508181815181106119aa576119aa611f70565b6020026020010151604001518411155b156119ca576001925050506119d9565b600101611917565b5060009150505b9392505050565b6000546001600160a01b031633146111d55760405162461bcd60e51b815260206004820181905260248201527f4f776e61626c653a2063616c6c6572206973206e6f7420746865206f776e657260448201526064016102c6565b600080546001600160a01b038381166001600160a01b0319831681178455604051919092169283917f8be0079c531659141344cd1fd0a4f28419497f9722a3daafe3b4186f6b6457e09190a35050565b600060208284031215611a9c57600080fd5b5035919050565b6000815180845260005b81811015611ac957602081850181015186830182015201611aad565b506000602082860101526020601f19601f83011685010191505092915050565b6000610140825184526020830151611b0c60208601826001600160a01b03169052565b506040830151816040860152611b2482860182611aa3565b91505060608301518482036060860152611b3e8282611aa3565b91505060808301518482036080860152611b588282611aa3565b91505060a083015184820360a0860152611b728282611aa3565b91505060c083015184820360c0860152611b8c8282611aa3565b91505060e083015184820360e0860152611ba68282611aa3565b6101008581015190870152610120948501519490950193909352509192915050565b6020815260006119d96020830184611ae9565b600080600060608486031215611bf057600080fd5b505081359360208301359350604090920135919050565b6000602080830181845280855180835260408601915060408160051b870101925083870160005b82811015611c5c57603f19888603018452611c4a858351611ae9565b94509285019290850190600101611c2e565b5092979650505050505050565b602080825282518282018190526000919060409081850190868401855b82811015611cbe57815180516001600160a01b0316855286810151878601528501518585015260609093019290850190600101611c86565b5091979650505050505050565b634e487b7160e01b600052604160045260246000fd5b600082601f830112611cf257600080fd5b813567ffffffffffffffff80821115611d0d57611d0d611ccb565b604051601f8301601f19908116603f01168101908282118183101715611d3557611d35611ccb565b81604052838152866020858801011115611d4e57600080fd5b836020870160208301376000602085830101528094505050505092915050565b600080600080600080600080610100898b031215611d8b57600080fd5b883567ffffffffffffffff80821115611da357600080fd5b611daf8c838d01611ce1565b995060208b0135915080821115611dc557600080fd5b611dd18c838d01611ce1565b985060408b0135915080821115611de757600080fd5b611df38c838d01611ce1565b975060608b0135915080821115611e0957600080fd5b611e158c838d01611ce1565b965060808b0135915080821115611e2b57600080fd5b611e378c838d01611ce1565b955060a08b0135915080821115611e4d57600080fd5b50611e5a8b828c01611ce1565b93505060c0890135915060e089013590509295985092959890939650565b8a81526001600160a01b038a16602082015261014060408201819052600090611ea38382018c611aa3565b90508281036060840152611eb7818b611aa3565b90508281036080840152611ecb818a611aa3565b905082810360a0840152611edf8189611aa3565b905082810360c0840152611ef38188611aa3565b905082810360e0840152611f078187611aa3565b6101008401959095525050610120015298975050505050505050565b600060208284031215611f3557600080fd5b81356001600160a01b03811681146119d957600080fd5b6020808252600a9082015269125b9d985b1a59081a5960b21b604082015260600190565b634e487b7160e01b600052603260045260246000fd5b600181811c90821680611f9a57607f821691505b6020821081036106b857634e487b7160e01b600052602260045260246000fd5b634e487b7160e01b600052601160045260246000fd5b81810381811115611fe357611fe3611fba565b92915050565b60008261200657634e487b7160e01b600052601260045260246000fd5b500490565b8082028115828204841417611fe357611fe3611fba565b86815285602082015284604082015260c06060820152600061204760c0830186611aa3565b82810360808401526120598186611aa3565b9150508260a0830152979650505050505050565b601f8211156120b757600081815260208120601f850160051c810160208610156120945750805b601f850160051c820191505b818110156120b3578281556001016120a0565b5050505b505050565b815167ffffffffffffffff8111156120d6576120d6611ccb565b6120ea816120e48454611f86565b8461206d565b602080601f83116001811461211f57600084156121075750858301515b600019600386901b1c1916600185901b1785556120b3565b600085815260208120601f198616915b8281101561214e5788860151825594840194600190910190840161212f565b508582101561216c5787850151600019600388901b60f8161c191681555b5050505050600190811b01905550565b60006001820161218e5761218e611fba565b506001019056fea26469706673582212205eff0e4bf3d40d4013dfdfc41bf89563fcc130366971a401d64e7fcf3bcb6c8264736f6c63430008120033",
  "linkReferences": {},
  "deployedLinkReferences": {}
}